:020000040800F2
:10000000A8AE00202903000813530008D74B0008AE
:1000100011530008970E0008B58600080000000084
:10002000000000000000000000000000690200085D
:10003000051B000800000000C50200082D64000830
:100040004303000843030008430300084303000878
:100050004303000843030008430300084303000868
:100060004303000843030008430300084303000858
:10007000D91600084303000843030008430300089F
:100080004303000843030008430300084303000838
:10009000990E0008430300084303000843030008C7
:1000A0004303000843030008430300084303000818
:1000B0004303000843030008430300084303000808
:1000C00043030008430300084303000843030008F8
:1000D00043030008556B000843030008796B0008D0
:1000E00043030008430300084303000843030008D8
:1000F00043030008096500084303000843030008A0
:1001000043030008430300084303000843030008B7
:100110004303000843030008FD640008430300088C
:1001200043030008E5160008F1160008FD16000854
:100130004303000843030008430300084303000887
:10014000A50E00084303000843030008C555000836
:100150000917000815170008211700089D6B0008F3
:100160004303000843030008430300084303000857
:100170004303000843030008430300080000000095
:10018000430300084303000800F002F800F05CF8A5
:100190000AA090E8000C82448344AAF10107DA45E2
:1001A00001D100F051F8AFF2090EBAE80F0013F0D8
:1001B000010F18BFFB1A43F0010318476CBE000083
:1001C0008CBE00000A444FF0000C10F8013B13F005
:1001D000070408BF10F8014B1D1108BF10F8015BA0
:1001E000641E05D010F8016B641E01F8016BF9D193
:1001F00013F0080F1EBF10F8014BAD1C0C1B09D1EA
:100200006D1E58BF01F801CBFAD505E014F8016B5B
:1002100001F8016B6D1EF9D59142D6D370470000ED
:100220000023002400250026103A28BF78C1FBD8FF
:10023000520728BF30C148BF0B6070471FB50BF095
:10024000D4FC1FBD10B510BD00F0E5F91146FFF755
:10025000F5FF09F055FB00F003FA03B4FFF7F2FFD6
:1002600003BC00F007FA00002C4B19680868B0E8DE
:10027000F04F80F30988BFF36F8F4FF0000080F3D9
:10028000118870470000000008480068006880F38B
:1002900008884FF0000080F3148862B661B6BFF39F
:1002A0004F8FBFF36F8F00DF00BF00BF08ED00E08E
:1002B000DFF80C00016841F470010160704700BF75
:1002C00088ED00E0EFF30980BFF36F8F134B1A68DE
:1002D0001EF0100F08BF20ED108A20E9F04F1060CB
:1002E00009B44FF0500080F31188BFF34F8FBFF374
:1002F0006F8F0AF03DFA4FF0000080F3118809BCBF
:1003000019680868B0E8F04F1EF0100F08BFB0EC95
:10031000108A80F30988BFF36F8F70477C0000203C
:10032000EFF30580704700000948804709480047FF
:10033000FEE7FEE7FEE7FEE7FEE7FEE7FEE7FEE795
:10034000FEE7FEE704480549054A064B70470000F2
:10035000ED64000889010008A86E0020A8AE002006
:10036000A88E0020A88E002053EA020C00F06980BD
:100370002DE9F04B4FF00006002B1FBFB3FA83F5B9
:1003800003FA05F424FA05F65E4012BF1643B2FAEA
:1003900082F502FA05F4C5F120051EBF22FA05FC1C
:1003A00044EA0C04203556EA044C4FEA144418BFC2
:1003B000641C4FF000084FF00009904271EB030CF1
:1003C00039D3002919BFB1FA81F701FA07F6B0FA5B
:1003D00080F700FA07F6C7F120071EBF20FA07FCD6
:1003E00046EA0C062037B6FBF4FCA7EB0507103FE6
:1003F00007F01F0BCBF120060CFA0BFB2CFA06F6CC
:1004000044BFB3460026202FA4BF5E464FF0000B2A
:100410005BEA060C08BF4FF0010B19EB0B09ABFBB5
:10042000027C48EB0608C01B06FB02CC0BFB03CC8E
:1004300071EB0C01C1E70B46024641464846BDE858
:10044000F08B13B54FF000004FF00001AFF30080C8
:10045000BDE81C407047032A40F2308010F0030CC6
:1004600000F0158011F8013BBCF1020F624498BF07
:1004700011F801CB00F8013B38BF11F8013BA2F1A4
:10048000040298BF00F801CB38BF00F8013B11F01F
:10049000030300F02580083AC0F0088051F8043BBF
:1004A000083A51F804CBA0E80810F5E7121D5CBF2C
:1004B00051F8043B40F8043BAFF30080D20724BF5F
:1004C00011F8013B11F801CB48BF11F8012B24BFF3
:1004D00000F8013B00F801CB48BF00F8012B704742
:1004E00010B5203AC0F00B80B1E81850203AA0E8CF
:1004F0001850B1E81850A0E81850BFF4F5AF5FEA03
:10050000027C24BFB1E81850A0E8185044BF18C9B5
:1005100018C0BDE810405FEA827C24BF51F8043B5C
:1005200040F8043B08BF7047D20728BF31F8023BB0
:1005300048BF11F8012B28BF20F8023B48BF00F844
:10054000012B704702F0FF0343EA032242EA024212
:1005500000F002B84FF000020429C0F0128010F041
:10056000030C00F01B80CCF1040CBCF1020F18BF8F
:1005700000F8012BA8BF20F8022BA1EB0C0100F022
:100580000DB85FEAC17C24BF00F8012B00F8012BF5
:1005900048BF00F8012B70474FF0000200B513462A
:1005A00094469646203922BFA0E80C50A0E80C5093
:1005B000B1F12001BFF4F7AF090728BFA0E80C5044
:1005C00048BF0CC05DF804EB890028BF40F8042B3D
:1005D00008BF704748BF20F8022B11F0804F18BFAA
:1005E00000F8012B704770477047704710B500F056
:1005F0000DF8006810BD10B5044600F007F804605F
:1006000010BD000000487047446E0020004870474D
:10061000446E002070477546FFF7F4FFAE460500B4
:100620006946534620F00700854618B020B5FFF70D
:1006300089FEBDE820404FF000064FF000074FF064
:1006400000084FF0000B21F00701AC46ACE8C009F0
:10065000ACE8C009ACE8C009ACE8C0098D467047F9
:1006600010B50446AFF300802046BDE81040FFF708
:10067000F4BD000001491820ABBEFEE726000200D1
:1006800091ED000ADFED1E0A80ED010AD1ED011A9D
:1006900080EE202AC0ED021A91ED021A194B80ED6E
:1006A000001A80ED042A81EEA02AC1EE201A80ED06
:1006B000052AC0ED031AD0ED080AB0F91C1070EE3F
:1006C000600A10EE902A9A4201DD491E05E010EE04
:1006D000902A0D4B9A4201D9491C8183B0F91C1014
:1006E000DFED0A1A00EE901AB8EEE01AF0EE400ABA
:1006F00041EE210AC0ED060A80ED080A70470000AD
:10070000E12E654200003443000034C30000B443CE
:1007100001221021014802F0D3B80000000002407D
:1007200000221021014802F0CBB800000000024076
:1007300001221146014802F0C3B800000004024043
:1007400000220121014802F0BBB800000004024071
:1007500010B5002807D0044948610121034800F082
:10076000DDF80028F9D110BDD001002008050020D7
:1007700070B50546FFF7D4FF922000F02BF9062252
:100780006549122000F008F9FFF7C2FF624CA4F19E
:10079000200660782178000200B2084300EE100ABB
:1007A000D6ED030AB8EEC00A60EE200A95ED080AFD
:1007B00060EE800AC5ED000AE078A178000200B280
:1007C000084300EE900A96ED031AF8EEE00A60EE98
:1007D000810A60EE800AC5ED010A60792179000284
:1007E00000B2084300EE900A3081F8EEE00A60EEB5
:1007F000810A20EE800A85ED020AFFF7A1FF082298
:100800002146002000F0C8F8FFF792FF20780F285B
:100810005AD1F078A1780028E0784FEA002000B2A1
:1008200040EA01002BD000EE100AD5ED090AB8EE1F
:10083000C01A96ED040A51EE000AC5ED030A60796C
:100840002179000200B2084300EE900A95ED0A1AE1
:10085000F8EEE00A10EE801A85ED041AE079A1792D
:10086000000200B2084300EE900A308195ED0B1AA9
:10087000F8EEE00A10EE801A85ED051A24E000EE8D
:10088000100AF8EEC00A96ED040A60EE800AC5ED83
:10089000030A60792179000200B2084300EE900A51
:1008A000F8EEE00A60EE800AC5ED040AE079A1796D
:1008B000000200B2084300EE900A3081F8EEE00A30
:1008C00020EE800A85ED050AFFF72AFFA22000F03E
:1008D00081F802221049222000F05EF8FFF718FF8D
:1008E00020786178C00040EA51103081B0F5806F07
:1008F00002DBA0F500603081B6F90800B4EE001A02
:1009000000EE100AF8EEC00AB3EE070A00EE810A04
:1009100085ED070A70BD0000F001002070B50D469E
:100920001649174C08600020A07008F0B3FAA178AF
:100930000843A07008F042FBA1780843A0701DB1E5
:10094000606900F031FB16E060699FED0E0A80EDF2
:10095000090A9FED0D0A80ED0A0A80ED0B0A9FED52
:100960000B0A80ED0C0A9FED0A0A80ED080A9FED44
:10097000090A80ED060AA07870BD00001C02002064
:10098000D0010020AC38223BB016CE393F161B41B7
:10099000C48B813F0000204270B514460D4640F0E4
:1009A000800000F017F806E0552000F013F8641EF0
:1009B00005F8010BE4B2002CF6D170BD10B50C4661
:1009C00040F0800000F006F8552000F003F8207099
:1009D00010BD000001B582B04FF47A700090054858
:1009E000012301AA02A9006803F002F99DF804009E
:1009F0000EBD00001C02002010B50C46FFF7EAFFF8
:100A00002046BDE81040FFF7E5BF000030B58BB0D1
:100A100001003AD0214A0868904201D1002003E049
:100A20001F4A904231D101201E4A52F8204094F8CA
:100A3000C12012B120460BB030BD216084F8C00047
:100A40003C21201DFFF7A8FD3C2104F14800FFF7E1
:100A5000A3FDD4B12068C0B100200125CDE9060571
:100A60000590009001900290039004900D20CDE934
:100A7000085094F8C000012802D10E20059009907A
:100A80006946206801F0D6F808B10020D3E7204677
:100A900000F061F884F8C150CCE700000064004029
:100AA00000680040780100202DE9F0411D46069FB6
:100AB0000E46040005D025B132B16FF06040B0425F
:100AC00005D20220BDE8F08140F2FF70F7E7204632
:100AD00000F0EEF90E2803D204EB8000456013E02D
:100AE0005FF0000004EB8001896C29B1401CC0B2AA
:100AF0000E28F7D30320E5E70E28FBD204EB800095
:100B0000C0F88470866445600020DBE730B587B0AC
:100B100004001CD02068002819D004F140052B46A1
:100B20006A46002101F00DF9002810D1029880B129
:100B30000199204600F0BCF904EB80020E28D2F89F
:100B4000841004D25268002A01D02846904707B08A
:100B500030BD0099EDE710B5040005D0206818B14C
:100B600001F0A4FB40B901E0022010BD0221206881
:100B700000F0F0FF0028F8D0012010BDF0B587B0DC
:100B80001D460C9B040007D035B1082B04D832B1A8
:100B90006FF06040884205D2022007B0F0BD40F2FD
:100BA000FF70F7E7012600200696B2B10090042AF4
:100BB00018D00146019003910421049302918DF80D
:100BC0001400206801F037F90028FAD02068006886
:100BD0008168490109D5069611E0CDE90010002190
:100BE0000390EAE701910146E5E78168090101D533
:100BF000022003E08068C00001D50420069006AB07
:100C00002A466946206800F0B7FF0028C5D00120B9
:100C1000C3E710B504000CD000290AD0216022716E
:100C2000084603F0C5F921792068BDE8104003F0BB
:100C300049BC10BD02681268D36A8B4201D2D16AE6
:100C400089B2007938B1042807D0082807D00C28C9
:100C500000D1116470475163704791637047D1634D
:100C6000704738B5040036D02168002933D00868B1
:100C70000268D20627D5026840680090C86B0068F9
:100C800000680003204627D405F003FE2068B4F86E
:100C90001821C06B006841684260511A89B220680F
:100CA000C06B0068026842F400220260D4F804219C
:100CB00012B109B1201D29E02068C06B00680168ED
:100CC00041F001010160206800680168890602D5D1
:100CD0006FF02001016038BD05F0DBFD2068B4F83D
:100CE0001821C06B006841684260511A89B22068BF
:100CF000C06B0068026822F400220260D4F804216C
:100D0000002AD9D00029D7D004F184009047D3E736
:100D10002DE9F0438DB09846DDE91567DDF8509078
:100D20000D46040013D095B108466A6003F07EFDBD
:100D3000E86B60B1A86B00B94EB9206818B1032008
:100D40000DB0BDE8F083802E01D8802F01D902209C
:100D5000F6E72560C4E94189A4F818714FF6FF70E1
:100D6000A4F81A6100EA8600A4F81C01002784F8A0
:100D70001E713C4A28683C49904201D10C6008E051
:100D80003A4A904201D14C6003E0394A904200D186
:100D90008C604FF48071201DFFF7FEFB4EB30A9765
:100DA00001210AA80B9708F024FFC4F81401E8B346
:100DB0003049D1E90101CDE90801B4F81A010790E1
:100DC0000CA80990002107A808F050FEC4F81001F3
:100DD00060B328491C220C316846FFF781FBB4F848
:100DE0001C0104902146684608F07CFFC4F80C0101
:100DF000E0B120680068416941F04001416120682C
:100E00000068C16841F01001C160204605F041FD55
:100E100020680168C06B091D006881602168201D81
:100E2000C96B0968C8608030216800E018E0C96BB0
:100E3000096808612168B4F81801C96B096848603D
:100E40002068C06B0068016841F48021016020685F
:100E5000C06B0068016841F00101016000206FE78C
:100E600001206DE700100140986400200048004018
:100E70000014014030BF000810B504000AD0B4F8D7
:100E80001A01002806D0D4F8140108F0D1FE002081
:100E900084F81E0110BDFEE7014800F0E2BF00002B
:100EA000B8040020014800F0DCBF0000E00400208E
:100EB0000246002002EB80039B6C8B4204D0401C56
:100EC000C0B20E28F6D30E207047000038B50400DB
:100ED00011D000290FD0002020606060A060E06089
:100EE0000846FFF793FD01C4034B042240F203615F
:100EF0000094FFF7D9FD38BDFD0E0008002803D08F
:100F0000002901D009F060BA70473EB50028DDE93C
:100F1000065423D002F0010262F35F0103F00102E4
:100F200041EA82018DF8041000218DF805108DF83A
:100F300006502A0A8DF807208DF80840220A8DF8FD
:100F400009208DF80A108DF80B1008210091006817
:100F500001AB002240F20161FFF710FE3EBD002010
:100F6000704700207047000010B500220449054872
:100F700006F00CF80449034805F0FBFF002010BD03
:100F80001C170020400A00201C0F002010B501464D
:100F9000034805F0EEFF024805F0C4FF002010BD35
:100FA000400A0020002070472DE9F04F04462DED47
:100FB000048B89B000200090019000F077FCED4D8B
:100FC000DFF8B4B3DFF8B49385ED060A02AE0DF195
:100FD00014084FF07C5A00BF00F068FCD5ED060AFB
:100FE00030EE600A10EE100A584512DD9FEDE40A5B
:100FF00084ED090A9FEDE30A84ED0A0A84ED0B0AE9
:101000009FEDE10A84ED0C0A9FEDE00A84ED060AEB
:101010008BE19FEDDF0A00F0EFFB9FEDDE0A00277A
:1010200084ED0C0A84ED090A84ED0A0A84ED0B0AAA
:10103000FBE000BFFFF774FB9220FFF7CBFC06221A
:1010400069461220FFF7A8FCFFF762FB9DF801003C
:101050009DF80010000200B2084300EE100AD5ED22
:10106000030AB8EEC00A60EE201AC4ED001A9DF81B
:1010700003009DF80210000200B2084300EE100ABF
:1010800095ED031AB8EEC00A60EE010AC4ED010A3C
:101090009DF805009DF80410000200B2084300EE20
:1010A000100AB8EEC00A20EE011A21EEA10A84ED62
:1010B000021A00EEA00A01EE010A07F00DFEB0EEE2
:1010C000408A94ED0C0A30EE080A84ED0C0AFFF712
:1010D00037FB082269460020FFF75EFCFFF728FB7C
:1010E0009DF800000F2840D19DF803009DF80210E4
:1010F000000200B2084300EE100AD5ED040AB8EE73
:10110000C00A20EE200A84ED030A94ED091A31EE9C
:10111000000A84ED090A9DF805009DF804100002FC
:1011200000B2084300EE100AB8EEC00A20EE200A12
:1011300084ED040A94ED0A1A31EE000A84ED0A0ADD
:101140009DF807009DF80610000200B2084300EE6B
:10115000100AB8EEC00A20EE200A84ED050AD4ED8C
:101160000B0A30EE800A84ED0B0A002F7ED0B4EE1D
:10117000C98AF1EE10FA01DDB0EE489AB4EEE88AC1
:10118000F1EE10FA01D2F0EE488A00204FEA080290
:1011900004EB800191ED030A06EB8001D1ED000A1A
:1011A000B4EEE00AF1EE10FA01DD81ED000A02EB87
:1011B0008001D1ED000AB4EEE00AF1EE10FA01D29E
:1011C00081ED000A401CC0B20328E1D339EE680A61
:1011D0000020424685ED070A4FEA090106EB80032D
:1011E000D3ED000A02EB800393ED001A01EB8003BC
:1011F000401C70EEC10AC0B20328C3ED000AEDD353
:1012000010EE100A504514DC63480A68824210DC74
:101210004A6882420DDCD9F80810814209DC9FED52
:101220005F0A00F0E9FA7F1CBFB2E8888742FFF44A
:1012300001AFE988D4ED0C0A00EE101A2F46002009
:10124000B8EE400A80EE801A84ED0C1A00EE101AF7
:1012500004EB8002401CB8EE400AD2ED090AC0B28D
:10126000032880EE801A82ED091A00E06AE0EDD3CF
:10127000FFF756FAA220FFF7ADFB022269462220B3
:10128000FFF78AFBFFF744FA9DF800009DF8011074
:10129000C00040EA5110B0F5806F01DBA0F500609E
:1012A00000EE100AB4EE001AF8EEC00AB3EE070A18
:1012B00000EE810A84ED060AB888401CB880F869FF
:1012C00050453FF789AE94ED0C0ADFED350A30EE5C
:1012D000600AB0EEC00A10EE100A5045F1DC2E484C
:1012E000D9F800104A468142EBDC51688142E8DCC3
:1012F000D9F808108142E4DC94ED090A2948B0EEDF
:10130000C00A10EE101A8142DBDC94ED0A0AB0EE3E
:10131000C00A10EE101A8142D3DC94ED0B0AB0EE35
:10132000C00A10EE101A8142CBDC94ED0C0ADFEDFE
:101330001E0A80EE801A84ED081A09B0BDEC048BF9
:10134000BDE8F08FB0EE489AF0EE488A00204146A2
:1013500004EB800292ED030A06EB800282ED000AA4
:1013600001EB8002401CC0B282ED000A0328EFD3DB
:101370002CE70000D0010020000020416065002023
:10138000AC38223BB016CE393F161B41000020423C
:101390000AD7A33B000000009A99193E6F12033A46
:1013A000CDCC1C410AD7233CC3F51C4110B50446E3
:1013B0002DED028BA82000F09BFA354A012104F59F
:1013C0001D7008F03BF840F24112324904F5777085
:1013D00008F0FAFA0423DA012E4904F56A7008F0DD
:1013E0004BFA04F57D7003F021FC2B48F1EE0C2A3A
:1013F0009FED2A2A90ED003ADFED291A9FED291A78
:10140000F3EE040A9FED280A04F5966008F0A8F9A7
:1014100004F59C6004F040FD1E4904F5A76008F047
:101420007DFF224904F24C5003F0A8FF204904F24A
:10143000846004F0B1FD164904F64400FFF746FD50
:101440004FF41D712046FFF7A7F89FED1A8ADFEDD4
:101450001A8A04F11800F0EE480AB0EE680A08F0A3
:1014600009F9F0EE480AB0EE680A04F1280008F025
:1014700001F9F0EE480AB0EE680A04F1380008F00D
:10148000F9F8BDEC028B2046BDE8104007F060BFC4
:10149000E0040020B80400202C0200209A99993F13
:1014A000AE47613E000080469A99993ED0070020E1
:1014B00040070020CDCC4C3EA69B443B2DED068B37
:1014C00082B07F48FFF772FFDFED7E9ADFF8F0A170
:1014D0007D4D03274FF000090AF580666888B0FB50
:1014E000F7F107FB1100002876D19AF87C028AF800
:1014F00048005446724807F051FE94F8480001280D
:1015000074D0022871D084F85190012084F85200E0
:101510006B4807F0D1FDDFF8B48194ED030A94ED38
:10152000029AD8ED220AD4ED018A30EE20AAB0EE5C
:10153000490A07F03DFA20EE288AB0EE490A07F082
:1015400003FB60EE280AD8ED191A6846B0EE4A1A75
:10155000B0EE480A04F03CF8BDF80000A4F8B8006A
:10156000BDF80200A4F82401BDF80400A4F890011D
:10157000BDF80600A4F8FC01514C04F57D7003F0A1
:1015800067FB94ED040A84ED9A0A96ED220ADFEDDA
:10159000500A204620EE200A84ED9C0A07F0A4FEA3
:1015A000204607F009FF204600216A4601EBC103EF
:1015B00003EB430300EB830393ED2F0ABDEEC00A58
:1015C00010EE103A22F81130491C0429EEDB1146C6
:1015D00000F56A7008F020F96888B0FBF7F107FBA6
:1015E0001100012827D037E000E014E084F8529081
:1015F00084F85190B4F974029FED361A00EE100A87
:10160000B8EEC00A60EE290A80EE810AD4ED040A21
:1016100030EE800A0CE084F8529094F87C0684F84E
:10162000510096ED9E0A18B130EE290A86ED9E0A09
:1016300084ED040A6CE722484FF4006190ED890ABA
:10164000D0ED9C0A00F5777030EE200ABDEEC00A9E
:1016500010EE102A08F08DF968886421B0FBF1F2D1
:1016600001FB1200F0B91648042290F8A417B2EB5F
:10167000111F01D1012100E0002190F8CA27642A3E
:1016800001D9012200E00022B0F84238B0F801C8C8
:10169000B0F8E147CDE9004CC3F3013300F6440054
:1016A000FFF733FC688840F6B831401C80B2688090
:1016B000884201D9A5F80290012008F0CBF90DE786
:1016C000906500208FC2F53D3C020020906D002007
:1016D000A00CB34500002544014800F075BE000091
:1016E000D8080020014800F06FBE00003809002033
:1016F000014800F069BE000060050020014800F0CC
:1017000063BE0000C0050020014800F05DBE00007F
:1017100018080020014800F057BE0000980900207A
:10172000014800F051BE000078080020016818232D
:10173000CAB2103AB2FBF3F2054B6FF30901032A68
:101740009B5CC36500D9091D816508467047000090
:1017500010BC000810B5014600208B698A6A4FF062
:10176000C07453B1B3F5005F15D072B1012A0CD02B
:10177000022A0AD0032A09D104E01AB1012A06D0AC
:10178000022A03D1C96AC90100D5012010BDC96A66
:10179000A142FAD010BD002AF7D0012AF2D0022AC5
:1017A000F3D0032AF3D010BD30B50468256825F4C2
:1017B00080252560046863608368402B036803D03C
:1017C00099600068C26030BD9A600068C16030BD39
:1017D000074808B5406800900146064802699142F2
:1017E00002D2C168491CC1600099016108BD0000B6
:1017F000001000E0800100200A4948680A4AD2ED42
:10180000000A4A68121AF8EE601A01EE102AB8EEC1
:10181000411A60EE211AB4EEE11AF1EE10FAF0D39B
:1018200070470000001000E08001002000B50E4964
:101830002DED028B81B0496800910168009A511A20
:1018400000EE101A0949F8EE400A91ED000A026014
:10185000B8EE400A80EE808AFFF7BAFF01B0B0EE22
:10186000480ABDEC028B00BD001000E080010020A2
:1018700010B500F061F80B489FED0B1A02688188E3
:1018800002EB4203C3EBC212C08801EBC20100EEBF
:10189000101A00EE900AB8EE400AF8EE600A00EE68
:1018A000810A10BDB00100206F12833A10B500F01C
:1018B00043F80C489FED0C1A818890ED000A00EE69
:1018C000901AC088B8EE400AF8EE600A00EE810A6D
:1018D00000EE900A9FED051AF8EE600A00EE810A0C
:1018E00010BD0000B00100206F12833ABD3786356D
:1018F0000D490A6842F080720A600C4900224A6071
:101900000B6843F001030B6009494FF47A734843B5
:10191000B0FBF3F30749C1E90003054BB0FBF3F05B
:10192000C1E9020270470000FCED00E0001000E099
:1019300040420F00800100202DE9F8432148406813
:101940000090FFF745FF204F0024009EF8684FF0FD
:10195000FF312546E0FB0165C7E90E65D7F8008039
:101960002346424630462946FEF7FEFCA0FB083CD3
:10197000C7E9060101FB08C100FB0411F61A65EB7B
:101980000105C7E9086507F130080023C8F8000021
:10199000D7F8049030464A462946FEF7E5FC80B267
:1019A000A8F8040000FB09F0301A65EB0405C7E94C
:1019B0000A0529460023BA68FEF7D6FCA8F80600F7
:1019C000BDE8F883001000E0800100202DE9F0411F
:1019D000444E00242DED0A8B9FED438A4FF4FA7795
:1019E00056F824301A0E00EE102AC3F30740C3F352
:1019F0000721B8EE40AA00EE100ADDB206EB840320
:101A0000F8EE409A00EE101A5B68B8EE409A00EECD
:101A1000105A4FEA136CF8EE408A00EE10CAF8EE46
:101A2000400A00EE102AC3F30742B8EE400A30EE37
:101A3000C01A00EE102AF8EE400A00EE100AC3F3B6
:101A40000720C1EE08AAB8EE400A70EEC01A00EEF8
:101A5000100AD8B2F8EE400A00EE101AB8EE400AAA
:101A600081EE88BA70EEC00A00EE100AB8EE402A85
:101A700000EE105A5FF00005B8EE400AC0EE88BADA
:101A800032EE400A80EE08CA3AEE2AAA79EE8B9A24
:101A900039EE2B9ABCEECA0A10EE100ABCEEE90A27
:101AA000010610EE100ABCEEC90A41EA004110EE30
:101AB000100A78EE8C8A41EA0021BCEEE80A10EEAA
:101AC000100A0143094803F011F9032007F0C2FF8F
:101AD0006D1CBD42D8DB641C062C81DBBDEC0A8B7F
:101AE000BDE8F081480200200000FA432C6E00207F
:101AF000034803F0E5F800BFFFF768FFFCE70000CC
:101B00002C6E0020704772B6FEE7000010B558B189
:101B1000084C491E0BD310F8013B5340DBB234F89C
:101B2000133083EA1222F4E74FF6FF7010BD10461F
:101B300010BD000030BD000810B5054C04E000BF2A
:101B400010F8013B5340E25C491EF9D2104610BD2B
:101B500030BC000890F82020012A07D0022A05D0C6
:101B6000416A41F480214162012070470068426966
:101B70000A43426100207047F0B590F82050046895
:101B8000A468012D05D0022D03D0416A41F48021C3
:101B90004DE014F0406F01D1E50045D5C4F3016478
:101BA0000125A5401D608D684FF4C0739DB1CE68BE
:101BB00035434E6845EAC605066803EB0417F55140
:101BC0004FF4C275076805EB04150E697E51097D57
:101BD000012905D009E00E88CD6845EA4655EBE7B6
:101BE00001684E5946F480764E511179D2F805506D
:101BF0004FF4C67641EA0521056806EB0416A951A3
:101C00001178D2F801204FF4C47541EA022102682C
:101C100005EB04155151006803EB0411425842F0E2
:101C2000010242500020F0BD416A41F400114162BE
:101C30000120F0BD10B590F82020012A07D0022A1B
:101C400005D0416A41F480214162012010BD3B482A
:101C5000D0F8002242F00102C0F80022D0F80022A1
:101C600022F47C52C0F80022D0F800224B6A42EAEB
:101C70000322C0F800220A7D02F01F0301229A40CD
:101C8000D0F81C329343C0F81C32CB69B3B9D0F8FA
:101C90000C329343C0F80C328C894B6864F31F43B9
:101CA0004C6900EBC404C4F840320C890B6864F33F
:101CB0001F434C6900EBC404C4F84432CB69012BC8
:101CC00016D1D0F80C321343C0F80C320C884B6894
:101CD00064F31F434C6900EBC404C4F840320C8920
:101CE000CB6864F31F434C6900EBC404C4F844326E
:101CF0008B69002BD0F804320ED01343C0F80432A5
:101D00000B69002BD0F8143208D01343C0F81432FA
:101D1000096A012904D008E09343EFE79343F5E70C
:101D2000D0F81C121143C0F81C12D0F8001221F098
:101D30000101C0F80012002010BD00000064004046
:101D4000704770B590F82040012C05D0022C03D0CC
:101D5000416A41F4802128E0046809B32469A4079A
:101D600020D04FF4D874056804EB01142D5915F0F8
:101D70000405956005682D591AD0ED085560056871
:101D80002C5904F00204D4604FF4DA74056804EBB3
:101D900001142E5906F00F06082E0CD308250DE06D
:101DA000E468DCE7416A41F400114162012070BD42
:101DB0006D0D1560E3E72D5905F00F0515610568F8
:101DC0002D59C5F30725956105682C59240C5461DC
:101DD0004FF4DC72046802EB0112A4581C70046812
:101DE000A458240A5C700468A458240C9C700468ED
:101DF000A258120EDA704FF4DE72046802EB011280
:101E0000A4581C710468A458240A5C710468A4587E
:101E1000240C9C710468A258120EDA71006829B172
:101E2000016941F020010161002070BDC16841F0ED
:101E30002001C160F8E70246002092F82010012935
:101E400001D002290CD111688A68520100D5012005
:101E50008A68120100D5401C8968C90000D5401C61
:101E600070472DE9F05F0546006800244669D0F808
:101E700004908768D0F80CB0D0F810A0D0F8188083
:101E8000F10748D0F90714D001218160B80703D5C4
:101E9000284600F038FA0CE0780702D54FF40064C9
:101EA00007E0380702D54FF4805402E0284600F0DE
:101EB00029FAF80516D529684FF480708860B805AE
:101EC00003D5284600F021FA0CE0780502D544F449
:101ED000005407E0380502D544F4804402E0284667
:101EE00000F012FAF80316D529684FF480308860A4
:101EF000B80303D5284600F00AFA0CE0780302D5AF
:101F000044F4004407E0380302D544F4803402E08E
:101F1000284600F0FBF9300707D55FEACB6004D50F
:101F20002968102044F40074C86070074FF0080757
:101F300007D55FEA0B7004D52868C760284600F013
:101F400099F9B00706D52868C068800702D02846EE
:101F500000F092F9700607D55FEACA6004D52968D7
:101F6000102044F480640861B00607D55FEA0A7067
:101F700004D528680761284600F094F9F00606D5D4
:101F800028680069800702D0284600F08CF9B00369
:101F900008D55FEAC96005D5296810204860284641
:101FA00000F082F9F00307D55FEA097004D52868CC
:101FB0004760284600F0ACF9300446D55FEA497026
:101FC00040D5F00504D55FEAC87001D044F00104A3
:101FD000B00504D55FEA887001D544F002047005AD
:101FE00004D55FEA487001D544F00404300529D5D2
:101FF00018F0700F26D008F07000402815D006DCCD
:10200000102809D020280AD0302816D10AE05028FC
:102010000ED0602811D10EE044F008040DE044F029
:1020200010040AE044F0200407E044F0400404E017
:1020300044F0800401E044F480742868816921F050
:1020400070018161296804204860002C05D0686A0D
:10205000204368622846FFF773FEBDE8F09F70B525
:10206000040003D094F8200010B104E0012070BDFA
:10207000204600F081F82068016841F0010101600C
:1020800000F024FC0546052604E000F01FFC401B80
:102090000A2811D820684068C007F6D02068016877
:1020A00021F00201016000F011FC05460BE000F098
:1020B0000DFC401B0A2806D9606A40F400306062BB
:1020C00084F82060D2E7206840688007EFD4207E43
:1020D0000128206801683DD021F080010160607E08
:1020E00001282068016838D021F040010160A07EFD
:1020F00001282068016833D021F020010160E07ED2
:102100000128206801682ED041F010010160207F75
:1021100001282068016829D021F008010160607F52
:1021200001282068016824D021F004010160D4E96D
:1021300002010843D4E90412114308436168491EAF
:1021400008432168C86100206062012084F82000F3
:10215000002070BD41F08001C0E741F04001C5E7BB
:1021600041F02001CAE721F01001CFE741F008015A
:10217000D4E741F00401D9E7F0B587B00446142153
:102180006846FEF709FA364B3648DFF8D0E01968A2
:10219000D4F800C0334A0325022609271030002452
:1021A000491CF44522D11960012907D1016841F089
:1021B00000710160006800F000700590106840F048
:1021C000080010601068CDE9005600F00800CDE965
:1021D000047069462448CDE9024500F079FA0022EE
:1021E0000521142000F010FC142032E0DFF87CE020
:1021F000F44530D1D0F800C04CF0806CC0F800C07D
:10220000D0F800C001290CF0806CCDF814C0196022
:1022100007D1016841F000710160006800F00070B2
:102220000590106840F002001060106802AB00F0EA
:10223000020005906020CDE9000683E8B000694601
:102240000B4800F045FA00220521402000F0DCFB9D
:10225000402000F0CBFB07B0F0BD00000064004060
:102260000400002030380240000C024000680040AA
:102270000004024070470000026807480749824294
:1022800001D1086828B90648824204D1486800286C
:1022900001D0FEF73BBC704700640040780100208D
:1022A00000680040704770477047000070B50446F2
:1022B00090F82000012804D0606A40F40020606299
:1022C00018E0022084F820002068016821F0010154
:1022D000016000F0FBFA05460EE000BF00F0F6FAE0
:1022E000401B0A2808D9606A40F40030606205206B
:1022F00084F82000012070BD20684068C007EDD13F
:10230000606270BD70477047704770477047704794
:1023100070472DE9F0410446876D00F0D7FA064674
:1023200094F835000025022806D08020606584F8E6
:1023300034500120BDE8F0812068016821F01601C9
:1023400001602068416921F080014161206C08B979
:10235000A06C20B12068016821F0080101602068AC
:10236000016821F0010101600CE000F0AFFA801B70
:10237000052807D920206065032084F8350084F8FB
:102380003450D7E720680068C007EED194F85C109D
:102390003F208840B860012084F8350084F834502C
:1023A0000020C7E790F83510022903D0802141654D
:1023B00001207047052180F835100068016821F080
:1023C00001010160002070472DE9F84304464FF0F9
:1023D0000009CDF8009063484FF41651A56D0068D0
:1023E000B0FBF1F72E6894F85C10082000FA01F1B8
:1023F00031420FD021680A6852070BD50A6822F0D3
:1024000004020A6094F85C108840A860606D40F097
:102410000100606594F85C104FF0010808FA01F0C3
:10242000304208D021684969090604D5A860606D6A
:1024300040F00200606594F85C100420884030424F
:1024400008D021680968890704D5A860606D40F04C
:102450000400606594F85C1010208840304218D069
:1024600021680968090714D5A86020680168490334
:1024700004D50068000308D5A16C07E00168C90510
:1024800003D4016821F008010160216C09B12046E4
:10249000884794F85C1020208840304231D0216871
:1024A0000968C9062DD5A86094F83500052820686C
:1024B000016806D0490347D5006800031DD4616C4C
:1024C0001CE021F0160101602068416921F08001C3
:1024D0004161206C08B9A06C20B12068016821F02E
:1024E0000801016094F85C103F208840A86084F8DF
:1024F000358084F83490216D1FE0E16B09B12046EE
:102500008847606D00282BD0606DC00714D005206F
:1025100084F835002068016821F00101016000980D
:10252000401C0090B84203D820680068C007F6D16C
:1025300084F8358084F83490E16C002910D001B023
:102540002046BDE8F04308470168C905D5D40168B5
:1025500021F01001016084F8358084F83490CCE7D4
:10256000BDE8F883780000202DE9F041044600F032
:10257000ADF906465CB1022084F83500002584F8E8
:1025800034502068016821F0010101600DE0012054
:10259000BDE8F08100F09AF9801B052805D92020BC
:1025A0006065032084F83500F2E720680068C00702
:1025B000F0D12268116820480140D4E90103184392
:1025C000D4E903363343184363691843A3691843B6
:1025D000E3691843236A18430843616A042903D155
:1025E000D4E90B1319430843106020684069666AF8
:1025F00020F0070130460E43012704280CD1A06AC1
:102600000643E06A40B12046FFF7A4F820B140201D
:10261000606584F83570BAE7206846612046FFF7A8
:1026200085F894F85C203F2191408160656584F8CD
:1026300035700020ACE700003F8010F02DE9F0413C
:102640000446866D90F83400002501280DD0012045
:1026500084F8340094F835700020012F07D084F8F6
:10266000340002252846BDE8F0810220FBE702275E
:1026700084F8357060652046FFF796F894F85C1092
:102680003F208840B0602068016841F01601016079
:10269000206C20B12068016841F0080101602068C9
:1026A000016841F001010160DCE7000070B50446FB
:1026B00000F00CF90546601C02D004480078044480
:1026C00000F004F9401BA042FAD370BD6C0000205A
:1026D0002DE9F84FDFF8BCA10022012503264FF0B9
:1026E0000F090AF1040BAAF1040E00BF0B6805FAEA
:1026F00002F42340A34270D10F7907F00307012FA2
:1027000001D0022F16D187684FEA420806FA08FC6A
:1027100027EA0C07D1F80CC00CFA08FC4CEA070CAD
:10272000C0F808C04768A7430C79C4F3001494406C
:102730003C4344600C79E443A4070AD0C4684FEAE0
:10274000420C06FA0CF7BC438F6807FA0CF72743D4
:10275000C7600C7904F00304022C12D1D40800EBFA
:10276000840CDCF820405707FF0E09FA07F824EA2A
:102770000804D1F8108008FA07F848EA0408CCF8F1
:10278000208004684FEA420C06FA0CF7BC430F792C
:1027900007F0030707FA0CF7274307604C6814F4A7
:1027A000403F70D03C4C276847F48047276024683E
:1027B00022F0030704F480440094384C07EB040C27
:1027C000DCF8084897074FEA177809FA08F7BC437E
:1027D000334FB84202D1002724E054E0314FB842D1
:1027E00001D101271EE0304FB84201D1022719E084
:1027F0002E4FB84201D1032714E02D4FB84201D12A
:1028000004270FE02B4FB84201D105270AE02A4FD9
:10281000B84201D1062705E0284FB84201D1072769
:1028200000E0082707FA08F72743CCF80878DAF819
:1028300000405746D1F804C09C435FEACC2C00D539
:102840001C433C60DBF800405F46D1F804C09C4369
:102850005FEA8C2C00D51C433C60DEF800407746D4
:10286000D1F804C09C435FEA8C3C00D51C433C601B
:10287000084F083F3C68D1F804C09C435FEACC3C59
:1028800000D51C433C60521C102AFFF42FAFBDE85A
:10289000F88F0000083C01404438024000300140FD
:1028A000000002400004024000080240000C024008
:1028B000001002400014024000180240001C0240B8
:1028C0000AB1816170470904FBE700000148806894
:1028D000704700006C0000200248816802781144B3
:1028E000816070476C0000200B4810B5016841F40E
:1028F00000710160016841F480610160016841F488
:1029000080710160032000F09FF80F2000F006F8AE
:1029100000F050F8002010BD003C024030B50546E4
:102920001F4887B00024016841F48071016000688D
:1029300006A900F48070009001A800F04DFE0498F4
:10294000A8B100F06FFE40001649174AB0FBF1F144
:102950001648491E026040F2E732C0E90324C0E98C
:102960000114846101F0B0FA040003D015E000F016
:1029700059FEE9E70D4801F057FB04000DD12D2069
:1029800000F034F8102D07D2002229462D2000F047
:102990003BF80748056000E0012407B0204630BD41
:1029A0004038024040420F0000200040F80900205B
:1029B000700000200C4882B0016841F48041016041
:1029C000006800F4804000900748001F016841F053
:1029D000805101600068002200F0805000900F21BB
:1029E000901E02B000F010B844380240002809DB05
:1029F00000F01F02012191404009800000F1E02019
:102A0000C0F8001170470000F0B40E4B1B680C4674
:102A1000C3F30223C3F10705042D00D90425191DB2
:102A2000072901D2002300E0DB1E012606FA05F18A
:102A3000491E214099409E40761E16403143F0BC0D
:102A400005F07EBE0CED00E0064900F007020868C4
:102A50004FF6FF03184040EA0220034A1043086083
:102A6000704700000CED00E00000FA0570470068B8
:102A7000416200207047F0B50368586A39B19C6A1A
:102A80004FF4827600EB144400204D1E0AE040EA29
:102A9000024098620FE006EB8007DF59401C04EB10
:102AA0001744C0B2A842F6D344EA02404FF4807201
:102AB00002EB810158500020F0BDD0F8E00404F092
:102AC00050BD01EBC10200EB8202D0F8E004126AB3
:102AD00004F0A1BC01EBC10200EB8202D0F8E004DB
:102AE000D2F8602204F0F3BCD0F8E00404F03BBD5F
:102AF0000A0601F00F0101EBC10100EB810101D5D4
:102B0000143101E001F51571006805F021BC70B5C4
:102B100004460B0601F00F0000EBC00104EB81013D
:102B20004FF001024FF0000502D54A75143103E061
:102B300081F8555201F51571087094F89404012834
:102B400008D084F89424206805F01CF984F8945483
:102B5000002070BD022070BD70B5044601F00F006A
:102B60002279904201D9012070BD0B0601F00F01BE
:102B700001EBC10104EB81014FF001024FF00005B0
:102B800002D54A75143103E081F8555201F51571EB
:102B90008D70087094F89404012808D084F8942467
:102BA000206805F061FA84F89454002070BD02207A
:102BB00070BD01F00F0101EBC10100EB8100D0F805
:102BC000680270472DE9F04104460F0601F00F003E
:102BD00000EBC00104EB81014FF001064FF000054E
:102BE00002D54E75143103E081F8555201F5157187
:102BF000C2F30A0208708A600B714A7802B14883F6
:102C0000022B00D14D7194F89404012809D084F866
:102C10009464206805F004F8284684F89454BDE8CC
:102C2000F0810220FBE710B501F00F0404EBC401B2
:102C300000EB8101C1E998230023C1F8683281F8D3
:102C4000553281F85442837901F51571012B00D179
:102C5000CA618279006805F05FFA002010BD70B586
:102C600004460D4601F00F002179884201D9012068
:102C700070BD29064FF000064FF0010206D500EBAB
:102C8000C00104EB81014A75143107E005EBC50171
:102C900004EB810181F8556201F515718A700870A5
:102CA00094F89404012807D084F89424206805F04F
:102CB00007FA280702D007E0022070BDA17904F2CC
:102CC0009C42206805F0A4F984F89464002070BD4B
:102CD00010B501F00F0404EBC40100EB8101C1E960
:102CE000082300238B6201234B7501F8144F83796D
:102CF000012B00D1CA618279006805F00DFA00202D
:102D000010BD00002DE9FC5F05680446284605F06B
:102D1000BBFB00287DD1206805F0E2FB002878D0BD
:102D2000D5F80808C0F30D20C4F8D404206805F0D5
:102D3000D7FB800704D52068416901F00201416199
:102D4000206805F0CDFBC10604F29C40009034D50C
:102D50002068816921F0100181612F6A07F00F005E
:102D600000EBC00004EB8006C7F3434006F5157680
:102D7000022802D0062811D01AE047F6F070074268
:102D800016D0C7F30A1217462846F16805F0ACFBC7
:102D9000F0683844F0607069384408E0082228463A
:102DA000009905F0A1FB7069C7F30A11084470612E
:102DB0002068816941F010018161206805F090FB75
:102DC00000034FF0080B4FF0000A4FF001097CD5CB
:102DD0000026206805F063FB074674E0F80770D012
:102DE000F1B2206805F074FB8046C00707D005EB00
:102DF0004611C1F8089B3146204602F075FC5FEA97
:102E0000087024D505EB4611C1F808BB2068016C99
:102E100000E023E200EB46100191D0F8082BFB4BB9
:102E2000994205D9110403D54FF40041C0F8081B9D
:102E3000204600F0F6FAF5490198884207D9A079B2
:102E4000012804D120680121009A05F0E1F85FEA29
:102E5000C86004D505EB46111020C1F8080B5FEAE5
:102E600088701DD56869000605D5D5F8040840F4BA
:102E70008061C5F8041806EBC60004EB800090F8EA
:102E8000571200F51570012905D180F803A0F1B2A1
:102E9000204600F0E9F905EB46110220C1F8080BC5
:102EA0005FEA886004D505EB46102021C0F8081BB6
:102EB0005FEA884005D505EB46104FF40051C0F895
:102EC000081B7F08761C002F88D1206805F008FBBE
:102ED00040036ED5206805F0DBFA0746002666E061
:102EE000F80762D0F1B2206805F0E0FA8046C0072A
:102EF00023D006F00F01D5F8342809FA01F18A43EE
:102F0000C5F8342805EB4611C1F80899A0790128C5
:102F10000FD106EBC60004EB8000D0E90721114475
:102F2000016236B9606A20B920680121009A05F073
:102F30006FF8F1B22046FFF7C4FD5FEA087003D5D1
:102F400005EB4611C1F808B95FEAC86004D505EB86
:102F500046111020C1F808095FEA486004D505EB66
:102F600046104021C0F808195FEA887016D531462E
:102F7000284605F05EFA06EBC60004EB8000C17D32
:102F80001430012905D180F803A0F1B2204600F0E9
:102F900067F905EB46110220C1F808095FEA0860ED
:102FA00003D53146204602F005FC7F08761C002F31
:102FB00096D1206805F094FA002811DAD5F80408B3
:102FC00020F00101C5F8041894F8CC0401282BD096
:102FD000204600F00BFA2068416901F00041416190
:102FE000206805F07DFA00050BD5D5F80808C00764
:102FF00002D0204600F03EFA2068416901F40061E9
:103000004161206805F06CFAC00467D5D5F8040862
:1030100020F00100C5F804081021206805F009FA25
:1030200000214FF67F3220E084F8CCA40021204616
:10303000FFF71CFDCFE700BF05EB4110C0F80829E2
:10304000D0F8003923F40013C0F80039C0F8082B79
:10305000D0F8003B23F40013C0F8003BD0F8003B4D
:1030600043F00063C0F8003B491C20798842E3D854
:10307000D5F81C0840F00111C5F81C18E07B0028A9
:1030800028460DD0D0F8840840F00B01C5F884180C
:10309000D5F8440840F00B012846C5F844180DE067
:1030A000D0F8140842F22B010843C5F81408D5F8EB
:1030B000100840F00B012846C5F81018D0F8000899
:1030C00020F4FE61C5F80018A1792068009A04F088
:1030D0009FFF2068416901F480514161206805F03B
:1030E000FFF9800415D5206804F0DAFD206805F0AA
:1030F000BEF9E07100F090FA0146E279206805F02F
:1031000051FA204600F05CF92068416901F4005151
:103110004161206805F0E4F9000707D5204600F07A
:1031200069F92068416901F008014161206805F0F2
:10313000D7F9000616D5A86920F08001A9610126FB
:103140000DE000BF06EBC60004EB800090F85702CC
:10315000012803D1F1B22046FFF7CAFC761C207982
:10316000B042EFD8206805F0BBF9C0021FD5012698
:103170004F4614E005EB4610D0F8000906EBC601F7
:1031800004EB81010A7E012A08D1002806DACF75F6
:10319000F0B240F080012046FFF7AAFC761C2079AF
:1031A000B042E7D82068416901F48011416120688C
:1031B00005F096F9800234D501204A4629E000BF87
:1031C00005EB4011D1F8001B00EBC00304EB8303B7
:1031D00093F85862012E1BD1002919DA94F8D464AF
:1031E000C1F3004106F001068E4211D183F8572247
:1031F000A96941F08003AB616969090608D4D5F873
:10320000040840F40070C5F8040805E00A30544F83
:10321000401C21798142D3D82068416901F4001112
:103220004161206805F05CF9400007D52046FFF7B2
:1032300044FC2068416901F080414161206805F04B
:103240004FF940070AD520684568680702D520462F
:10325000FFF74AFC2068416829434160BDE8FC9FB4
:10326000D0F8E00404F0D1B9D0F8E00404F0E1B9FA
:10327000F8B5040005D094F895042668002510B12F
:1032800006E00120F8BD84F89454204600F056F87A
:10329000032084F89504B6F1A04F00D1A5712068F1
:1032A00004F0B0FE207C8DF8000094E80F0004F0DC
:1032B00005FD0226B8BB0021206805F034F990BB5B
:1032C000002001270DE000BF00EBC00104EB8101ED
:1032D0004F750875C8850D76CD610D62401CC0B272
:1032E0004D6221798142EFD8002011E000EBC0014E
:1032F00004EB810181F8555281F8540281F858524B
:10330000C1F85C52C1F86052401CC0B2C1F86452AE
:1033100021798142EAD8207C8DF8000094E80F00E2
:1033200004F0B2FD10B184F89564AAE7657484F8DE
:103330009574206804F09AFD0020F8BD10B586B0A1
:10334000044614216846FDF727F92068B0F1A04F24
:103350002FD119480021026842F001020260006882
:1033600000F0010005904FF4C05000900220CDE91C
:103370000101032003900A20049069460F48FFF7DB
:10338000A7F90D48001D016841F0800101600A485D
:103390001430016841F4804101600068002200F4AB
:1033A0008040059005214320FFF72EFB4320FFF7C7
:1033B0001DFB06B010BD0000303802400000024086
:1033C00070B50446C079012570B1022801D0FEF71E
:1033D0009AFB2946D4F8E00404F09AF9D4F8E00402
:1033E000BDE8704004F04EB90025F2E7D0F8E004E3
:1033F00004F077B9D0F8E00404F07DB910B50446C4
:1034000090F8940401280AD0012084F8940461748F
:10341000206805F0B6F8002084F8940410BD02205E
:1034200010BDD0F8E02400F29C41104604F07CB9B5
:1034300010B50446006894F89414012909D00121BC
:1034400084F89414C168490609D5617B012902D02A
:1034500005E0022010BD816B41F48031816320685A
:1034600004F0C5FF206804F0F3FC002084F8940405
:1034700010BD000010B50446D0F8E00404F096F941
:103480002068D0F8001E41F00101C0F8001EE07A6B
:10349000002804D00248016841F00601016010BD17
:1034A00010ED00E02DE9F0470E46050065D0DFF88D
:1034B0001481D8F80000F7B200F00700B04207D23C
:1034C00088F80070D8F8000000F00700B04254D12E
:1034D00028683D4C810712D5400703D5206840F489
:1034E000E05020602878000703D5206840F4604051
:1034F00020602068A96820F0F00008432060287848
:10350000C0072DD0304968680839012812D0022838
:1035100013D0032811D00968890700292DDA216802
:1035200021F0030101432160FFF7D0F9814641F208
:10353000883A0EE009688903EFE709688901ECE73A
:10354000FFF7C4F9A0EB0901514502D90320BDE8FA
:10355000F0872068696800F00C00B0EB810FEFD1B4
:10356000D8F80010404601F00701B14207D90770B2
:10357000006800F00700B04201D00120E7E728789A
:10358000400705D52068E96820F4E0500843206032
:103590002878000706D52068296920F4604040EAB1
:1035A000C100206000F05EF82168084AC1F30311F1
:1035B000515CC8400649086006480068FFF7AEF94C
:1035C0000020C4E7003C02400838024018BC000854
:1035D00078000020700000200F2202600C4A13685F
:1035E00003F003034360136803F0F0038360136880
:1035F00003F4E053C36012684FF4E05303EAD202CD
:1036000002610448006800F007000860704700008D
:1036100008380240003C0240014800687047000042
:10362000780000200448054900680968044AC1F38D
:103630008221515CC8407047780000200838024061
:1036400028BC00080448054900680968044AC1F319
:103650004231515CC8407047780000200838024071
:1036600028BC0008154810B5006810F00C0214487A
:1036700013D01449042A0FD0082A0ED10F4C241F4E
:103680002268236802F03F025B0207D52068C0F37E
:103690008810A0FB010106E0084610BD2168C1F3B7
:1036A0008811A1FB00010023FCF75EFE2168C1F335
:1036B0000141491C4900B0FBF1F010BD083802403F
:1036C0000024F400001BB7002DE9F84F04006ED071
:1036D0002078DFF84C93C007A9F104054AD009F11E
:1036E00004000168C1F38101012908D00068C0F31A
:1036F000810002280AD1D9F80000400206D52868C6
:10370000800337D560680028E1D033E06068B0F509
:10371000803F10D0B0F5A02F286810D020F4803062
:103720002860286820F4802028606068A8B1FFF72E
:10373000CDF806460DE0286840F48030F4E740F408
:1037400080202860F7E700BFFFF7C0F8801B6428DF
:1037500073D828688003F7D50CE0FFF7B7F8064662
:1037600005E000BFFFF7B2F8801B6428F0D8286896
:103770008003F7D42078DFF8AC8280074FF0000A8E
:103780003ED5A748001D016811F00C0F08D0006855
:10379000C0F3810002280BD1D9F80000400207D401
:1037A0002868800716D5E068012800D112E033E1CF
:1037B000E068B8B10120C8F80000FFF787F80646B6
:1037C00005E000BFFFF782F8801B0228C0D82868F8
:1037D0008007F7D52868216920F0F80040EAC10089
:1037E00028600DE0C8F800A0FFF770F8064604E076
:1037F000FFF76CF8801B02281FD828688007F7D4D1
:103800002078000722D5864F87486169703771B1EB
:1038100001210160FFF75AF8064604E0FFF756F869
:10382000801B022809D838688007F7D50EE0C0F859
:1038300000A0FFF74BF8064605E082E0FFF746F8E8
:10384000801B02287DD838688007F7D4207840078D
:1038500068D5DFF8CCB100270BF13C0BDBF800009A
:10386000C0000BD4DBF8001041F08051CBF8001001
:10387000DBF80000012700F0805000906B4E3068AC
:10388000C00510D4306840F480703060FFF71EF837
:10389000009005E0FFF71AF80099401A022850D866
:1038A0003068C005F6D55E4EA0686C3601280FD092
:1038B0000528306810D020F001003060306820F01A
:1038C00004003060A068B8B1FFF700F800900FE086
:1038D000306840F00100F4E740F004003060F7E7A2
:1038E000FEF7F4FF0099411A41F28830814266D810
:1038F00030688007F4D50EE0FEF7E8FF009007E09F
:10390000FEF7E4FF0099411A41F28830814256D80F
:1039100030688007F4D42FB1DBF8001021F080511B
:10392000CBF80010A069C8B33D49091D0968C1F36F
:10393000810102294AD00228504607D0C8F8600009
:1039400000E03CE0FEF7C2FF04463BE04746C8F813
:103950006000FEF7BBFF064605E000BFFEF7B6FFBE
:10396000801B02282BD828688001F7D4D4E90701EE
:103970000843A16A2E4A490802EB0141626A41EA02
:103980008211084394F82C1040EA0161C9F8001034
:1039900001203866FEF79AFF044606E03EE000BFCD
:1039A000FEF794FF001B022809D828688001F7D58C
:1039B00034E000BFFEF78AFF001B022802D9032073
:1039C000BDE8F88F28688001F4D427E00128F7D0FB
:1039D000D9F80000E26900F4800191421CD1226A0A
:1039E00000F03F01914217D147F6C071626A014071
:1039F000B1EB821F10D1A26A4FF0FF3300F44031C7
:103A000003EB5202B1EB024F06D194F82C1000F0F8
:103A10007060B0EB016F01D00120D1E70020CFE74B
:103A20000438024000004742800E474200700040C8
:103A30000000FFFF70B5040009D0606A002540B1A6
:103A400025616561A56294F8510040B10CE0012048
:103A500070BD6068B0F5827FF4D0E561F2E784F86C
:103A60005050204600F044F8022084F851002068AD
:103A7000016821F040010160A088218900F4827072
:103A800001F404410843A18901F400610843217C49
:103A900001F002010843217D01F001010843218B5F
:103AA00001F400710843217F01F03801084394F8C4
:103AB000201001F080010843218D01F400510843DA
:103AC00021680860A069042101EA104094F82410DC
:103AD00001F010010843216848602068C16921F4A1
:103AE0000061C1616565012084F85100002070BD4E
:103AF0002DE9F04186B0064614216846FCF74CFDDE
:103B000035493068884264D134480024016841F462
:103B100080510160006800F4805005902F481438EF
:103B2000016841F002010160016801F002010591A4
:103B3000016841F0010101600068022500F0010008
:103B400005901820CDE9000502AA03274FF00508CB
:103B500082E8900169462248FEF7BAFD8020CDE94F
:103B6000000502AA694682E890011E48FEF7B0FDF2
:103B70001E4D1D487F062860C5E901744FF480681A
:103B8000C5E903486C617812AC61C5E90740284675
:103B90006C62FEF7E9FC08B1FDF7B5FFF564AE63B2
:103BA000124D114860351830E5E802074020A5E8BD
:103BB0001101C00245F81449AC61C5E907400B4842
:103BC0006C626030FEF7D0FC08B1FDF79CFFB56475
:103BD000AE6306B0BDE8F0810030014044380240D9
:103BE00000040240000002404064024060050020E2
:103BF0002DE9FF4F81B01D46934604464FF0010961
:103C00000E9EFEF763FE074694F851006168012896
:103C100006D0B1F5827F3CD1A168C9BB042838D158
:103C20000298002871D0BBF1000FFBD0002DF9D015
:103C300094F8500001282CD04FF0010A84F850A0CD
:103C400094F85100042802D0052084F851004FF068
:103C50000008C4F85480C4F838B0E587A5870299F5
:103C60002163E586A586C4F84080C4F844802068B6
:103C70000168490603D4016841F040010160E06831
:103C8000B0F5006F606808D0F0B3012D49D081E035
:103C9000FFE7022005B0BDE8F08F08B1012D39D152
:103CA000206B21680088C860206B801C2063E08E38
:103CB000401EE0862EE02068816889070FD5E18EDE
:103CC00069B1B9F1010F0AD1216B0988C160206B7C
:103CD000801C2063E08E401EE0864FF000092068C3
:103CE0008168C9070CD0E18F51B1C068A16B088011
:103CF000A06B801CA063E08F401EE0874FF001099D
:103D0000FEF7E4FDC01B01E00BE067E0B04201D329
:103D1000701C50D1E08E0028CDD1E08F0028CAD190
:103D20003EE0206B216800780873206B401C206304
:103D3000E08E401EE0862DE02068816889070FD55F
:103D4000E18E69B1B9F1010F0AD1216B09780173D4
:103D5000206B401C2063E08E401EE0864FF000097F
:103D600020688168C9070CD0E18F51B1C068A16B90
:103D70000870A06B401CA063E08F401EE0874FF0EE
:103D80000109FEF7A3FDC01BB04202D3701C01D095
:103D900011E086B1E08E0028CED1E08F0028CBD193
:103DA0003A463146204602F0A1FA50B12020606523
:103DB00084F8508012E084F851A084F850800320E9
:103DC00068E7A06818B92068C1688068009084F826
:103DD00051A084F85080606D0028F1D0012059E78F
:103DE0007047704710B590F83C20012A22D001227C
:103DF00080F83C20CA688C6822F4407222434C68E8
:103E000022F4806222430C6822F4006222430C698F
:103E100022F4805222434C6922F400522243C969A1
:103E2000002322F480420A4301684A6480F83C304F
:103E3000002010BD022010BD70B590F83C20012A72
:103E400032D0012480F83C40022280F83D200368F3
:103E50005A689D6822F070060A6832435A60134B14
:103E600002689A4214D0B2F1804F11D0104B9A429E
:103E70000ED0104B9A420BD00F4B9A4208D00F4BEA
:103E80009A4205D00E4B9A4202D00E4B9A4204D170
:103E9000496825F080031943916080F83D40002176
:103EA00080F83C10084670BD022070BD0000014043
:103EB0000004004000080040000C004000040140E5
:103EC000004001400018004010B5040003D094F8F1
:103ED0003D0010B107E0012010BD002084F83C0037
:103EE000204600F01FF8022084F83D00211D2068C4
:103EF00002F010FB012084F8460084F83E0084F8AC
:103F00003F0084F8400084F8410084F8420084F8BF
:103F1000430084F8440084F8450084F83D00002004
:103F200010BD000008B51D4902681D488A4207D12E
:103F3000016841F001010160006800F001000BE040
:103F40001749184B091F9A4208D1086840F0080029
:103F50000860086800F00800009008BD124B9A4203
:103F600011D1086840F0100008600868002200F0D5
:103F70001000009005213620FEF746FDBDE8084000
:103F80003620FEF733BD09498A42E6D1016841F483
:103F900000310160006800F40030DDE700000140FE
:103FA00044380240000C0040001000400044014032
:103FB00090F83D10012901D001207047022180F8BE
:103FC0003D1000681149884214D0B0F1804F11D0E3
:103FD0000F4988420ED00F4988420BD00E498842C3
:103FE00008D00E49884205D00D49884202D00D49BB
:103FF000884204D1816801F00701062903D00168D5
:1040000041F0010101600020704700000000014004
:104010000004004000080040000C00400004014083
:10402000004001400018004090F83D10012901D0E7
:1040300001207047022180F83D100168CA6842F0F3
:104040000102CA6000681149884214D0B0F1804F63
:1040500011D00F4988420ED00E4988420BD00E492C
:10406000884208D00D49884205D00D49884202D0C7
:104070000C49884204D1816801F00701062903D068
:10408000016841F00101016000207047000001401B
:104090000004004000080040000C00400004014003
:1040A000004001400018004070B5044690F83C0004
:1040B0000025012817D0012684F83C60022084F8EE
:1040C0003D002068826822F0770222F47F428260FD
:1040D0000868502838D00DDC20284FD005DC90B37C
:1040E000102811D14AE0022070BD302846D0402867
:1040F0000AD13BE060282FD070280DD0B0F5805F4A
:1041000003D0B0F5005F12D0012584F83D60002097
:1041100084F83C00284670BDCB68D1E901212068B5
:1041200002F06DFA2068816841F0770109E0CB6800
:10413000D1E90121206802F062FA2068816841F427
:1041400080418160E1E719E0CA684968206802F0AF
:104150002BFB5021206806E0CA684968206802F0FD
:1041600034FB6021206802F054FACEE7CA6849683F
:10417000206802F019FB40212068F4E7226801461C
:104180001046F0E770472DE9F04104460068C66824
:1041900005694FF00007A90713D5B10711D5F91E1E
:1041A000016101202077206880698007204602D0C5
:1041B000FFF7E8FF04E000F0EFF8204600F081F997
:1041C0002777680716D5700714D521686FF00400AB
:1041D0000861022020772068806910F4407F204623
:1041E00002D0FFF7CFFF04E000F0D6F8204600F041
:1041F00068F92777280715D5300713D521686FF0A0
:1042000008000861042020772068C06980072046E4
:1042100002D0FFF7B7FF04E000F0BEF8204600F040
:1042200050F92777E80616D5F00614D521686FF007
:1042300010000861082020772068C06910F4407FD2
:10424000204602D0FFF79EFF04E000F0A5F82046CC
:1042500000F037F92777E80708D0F00706D0216883
:104260006FF001000861204600F090F9280608D59B
:10427000300606D521686FF0800008612046FFF700
:10428000AFFD680608D5700606D521686FF04000BE
:104290000861204600F084F9A8060AD5B00608D5C2
:1042A00021686FF0200008612046BDE8F041FFF76B
:1042B00098BDBDE8F081000070B586B004461421B9
:1042C0006846FCF769F92C4A216800242B4802252E
:1042D000914224D1016841F001010160016801F0BF
:1042E00001010591016841F010010160006801269B
:1042F00000F01000059010150090CDE90154CDE9B3
:10430000034669461E48FEF7E3F94FF4206000902B
:10431000CDE90154CDE9034669461A4813E01A4A2B
:10432000914214D1016841F0800101600068694642
:1043300000F0800005904FF4E0500090CDE901546A
:104340001248CDE90345FEF7C3F906B070BD104A27
:104350009142FAD1016841F020010160006869468C
:1043600000F02000059040200090CDE9015403208A
:10437000CDE903400748E6E700000140303802403D
:104380000000024000100240000C0040001C0240EF
:104390000044014000140240704770B5044690F894
:1043A0003C0000260D4601280FD0012084F83C0077
:1043B0006AB1042A1DD0082A2FD00C2A3FD001262A
:1043C000002084F83C00304670BD022070BD20689B
:1043D00002F028F92068816941F0080181612068B4
:1043E000816921F004018161206881692A69114392
:1043F00011E0206802F046F92068816941F400610B
:1044000081612068816921F480618161206881690E
:104410002A6941EA02218161D2E7206802F068F945
:104420002068C16941F00801C1612068C16921F0BB
:104430000401C1612068C1692A69114311E0206843
:1044400002F08AF92068C16941F40061C161206805
:10445000C16921F48061C1612068C1692A6941EAAA
:104460000221C161ACE710B5040003D094F83D000F
:1044700010B107E0012010BD002084F83C00204668
:1044800000F01EF8022084F83D00211D206802F093
:1044900041F8012084F8460084F83E0084F83F008B
:1044A00084F8400084F8410084F8420084F8430016
:1044B00084F8440084F8450084F83D00002010BDD5
:1044C0007047704710B50446022249B104290ED046
:1044D000082913D094F84100012816D0012010BDFE
:1044E00094F83E000128F9D184F83E200FE094F8BA
:1044F0003F000128F2D184F83F2008E094F8400002
:104500000128EBD184F8402001E084F84120012209
:10451000206802F067F816492068164A884201D0E0
:10452000904203D1436C43F40043436420688842C3
:1045300013D0B0F1804F10D00F4988420DD00F49F1
:1045400088420AD00E49884207D0904205D00D49D2
:10455000884202D00C49884204D1816801F00701E9
:10456000062903D0016841F001010160002010BD5F
:104570000000014000040140000400400008004029
:10458000000C004000400140001800400068034952
:10459000884201D1FEF7A0B970470000002000401A
:1045A000704770477047406C70470000F8B501686D
:1045B00004460868CA684B6910F00F0F4FF00005F9
:1045C00059D003F0010602F49077374365D0C10754
:1045D00005D0D10503D5616C41F00101616441074B
:1045E00005D5D90703D0616C41F0020161648107F0
:1045F00005D5D90703D0616C41F00401616401075E
:1046000007D502F02001314303D0616C41F008016D
:104610006164616C00293AD0800604D5900602D509
:10462000204602F07EF920684069616CC0F380107A
:10463000090700D460B3204602F03EF920684069C3
:10464000400621D52068143050E8001F21F04001B9
:1046500040E80012002AF5D1E06BA8B1724901656B
:10466000E06BFDF79FFE002811D0E06B016D01B0FB
:10467000BDE8F040084783060FD593060DD52046C8
:10468000BDE8F84002F04DB92046FFF78BFFF8BDBA
:104690002046FFF787FF6564F8BD266B2023012EB7
:1046A0007ED1C6067CD5D6067AD5086848680090C3
:1046B00048694FF0020640064DD5E26B106840682D
:1046C0004FF480770004000C3AD0A18D814237D995
:1046D000E085D069B8422DD020680C3050E8001F2A
:1046E00021F4807140E80012002AF5D120681430CE
:1046F00050E8001F21F0010140E80012002AF5D126
:104700002068143050E8001F21F0400140E80012FA
:10471000002AF5D184F84230256320680C3050E837
:10472000001F21F0100140E80012002AF5D1E06BD3
:10473000FDF7EFFD6663A08DE18D401A81B206E0C2
:10474000A18D8142A8D1D069B842A5D16663204627
:10475000FFF727FFF8BDA08DE18D401A81B2E08DF3
:104760000028F7D00029F5D020680C3050E8002F41
:1047700022F4907240E80027002FF5D12068143011
:1047800050E8002F22F0010240E80027002FF5D169
:1047900084F84230256320680C3050E8002F00E098
:1047A00006E022F0100240E80023002BF3D1CDE711
:1047B00005062BD5150629D594F841002128C9D125
:1047C000A068B0F5805F01D12069B0B1206A411CBA
:1047D0002162216800784860E08C401E0004000CD3
:1047E000E084B7D12068C16821F08001C1602068F1
:1047F000C16841F04001C160F8BD206A0088C0F383
:1048000008004860206A801C2062E5E74006F3D576
:104810005006F1D5CA68204622F04002CA6084F8EA
:10482000413000F0C3F9F8BDEF67000870B504002F
:1048300004D094F84100002510B106E0012070BDBD
:1048400084F84050204600F023F8242084F84100EA
:104850002068C16821F40051C160204602F0C2F80E
:104860002068016921F4904101612068416921F0CB
:104870002A0141612068C16841F40051C16065644A
:10488000202084F8410084F842006563002070BD58
:104890002DE9F04F87B0044614216846FBF77CFEF3
:1048A0009548DFF850821438D4F800C0924B0221AA
:1048B00003228615002507154FF0070A4FF0006BFD
:1048C000C4456CD1D3F800C04CF0100CC3F800C044
:1048D0001B6803F010030593036843F002030360B1
:1048E000036803F002030593036843F001030360C8
:1048F0000068884600F0010005908020CDE900089E
:104900000DF1080C91468CE8200669467B48FDF7BE
:10491000DFFE7000CDE900080DF10808694688E85F
:1049200020067748FDF7D4FEDFF8DC817549404664
:10493000C8F80010C0E901B5C0E90357C8F8145021
:10494000C0E906563602C8E90865D946BA46FDF7F9
:104950000BFE08B1FDF7D7F86B4F6A48C4F83C80EE
:1049600060373030C8F83840E7E802094020A7E84F
:104970002104654847F814596030BD61C7E90756FE
:104980007D62FDF7F1FD08B1FDF7BDF8A7630022D8
:1049900005212520BC63FEF737F8252046E0DFF827
:1049A0006C81C44547D1544B1B1FD3F800C04CF455
:1049B000802CC3F800C01B6803F4802305930368B0
:1049C00043F004030360006800F0040005904FF416
:1049D00040608DE82300CDE9032A69464C48FDF785
:1049E00077FEDFF824814B4908F1C0084046C8F83B
:1049F0000010C0E901B5C0E90357C8F814504FF4DE
:104A00000031C8F81850C8E90761C8F82450FDF70C
:104A1000ABFD08B1FDF777F8C4F83C800022052112
:104A20002720C8F83840FDF7EFFF2720FDF7DEFF0D
:104A300007B0BDE8F08FDFF8E080C445F8D1D3F8C7
:104A400000C04CF0200CC3F800C01B6803F020032A
:104A50000593036843F040030360006800F04000E2
:104A600005904FF484408DE823000820CDE9032011
:104A700069462A48FDF72CFE2249DFF8A4806039F8
:104A800040464FF0206AC8F80010C0E901A5C0E90F
:104A90000357C8F81450C0E906564FF48036C8E9E9
:104AA0000865B946FDF760FD08B1FDF72CF81C4F0D
:104AB0001448C4F83C8060371830C8F83840E7E83C
:104AC000020A4020A7E82102154847F8145960302F
:104AD000BD61C7E907567D62FDF746FD08B1FDF7E8
:104AE00012F8A763002205214720BC63FDF78CFF65
:104AF00047209BE700100140443802400004024078
:104B0000000002408864024018080020004800406D
:104B100000080240286002400014014000180240D2
:104B2000380900207047000070B5044690F8410035
:104B3000202801D0022070BD01B3FAB12162A28405
:104B4000E28400206064212384F84130A56B144B7B
:104B5000EB63A56B134B2B64A56B134BEB64A36B3F
:104B6000186520681346A56B021D2846FDF766FDF3
:104B700030B110206064202084F84100012070BD15
:104B800021686FF0400008602068143050E8001F72
:104B900041F0800140E80012002AF5D1002070BDEC
:104BA0004768000889680008FD67000830B4084BB2
:104BB0000246002153F8210028B10468944202D132
:104BC00030BCFCF759B9491C0329F3DB30BC7047F2
:104BD000986400207047FEE738B5044690ED270A38
:104BE0000E48D0ED000A0E4800F0BAFF0C48DFED89
:104BF0000D0A90ED0D0A68468DED000A9FED0A0A38
:104C000004F046FD9DED000ABCEEC00A10EE100A4D
:104C100081B204F1B400FCF70DF838BDC4010020E6
:104C2000A86400200000804F0000000010B50400C0
:104C30000BD004F18000FBF78BFD04F1B400BDE85C
:104C4000104000220149FBF7E4BF10BDF806002028
:104C500010B5040015D004F18000FBF789FDFCF7C6
:104C600007FEBCEEC00A074810EE101A41608268C9
:104C70008A1A022A05D381602046BDE81040FFF75A
:104C8000ABBF10BDC4010020F0B500230A243025BD
:104C900037261F4611E000BFB4EB107F02D905EBA9
:104CA000107C01E006EB107C01F813C001EB430C13
:104CB00000015B1C8CF80170DBB29342ECD3F0BDB9
:104CC00010B5044608220849FBF7A3FF0422064951
:104CD00004F10800FBF79DFF04F11000BDE810404F
:104CE00000220149FBF795BF6806002070B5114C02
:104CF00005460A0E2270C1F3074010FB02F06080E7
:104D0000C1F3072313FB02F3A380C9B211FB02F125
:104D1000E18001462846FBF78DFFA18805F10800D8
:104D2000FBF788FFE18805F11000BDE87040FBF754
:104D300081BF0000200200200F4810B50D4901601E
:104D40000321416000214FF410228160C0E9031269
:104D50004FF400124261017641768176C176017787
:104D60004177FDF77CF9002803D0BDE81040FCF73F
:104D7000CABE10BD00640040B80400200F4810B542
:104D80000D4901600321416000214FF41022816030
:104D9000C0E903124FF40012426101764176817638
:104DA000C17601774177FDF75AF9002803D0BDE8B5
:104DB0001040FCF7A8BE10BD00680040E0040020D1
:104DC000254808B5016841F480010160016801F4DB
:104DD00080010091016841F4001101600068002227
:104DE00000F40010009005210C20FDF70DFE0C20B2
:104DF000FDF7FCFD002205213920FDF705FE3920D5
:104E0000FDF7F4FD002205213A20FDF7FDFD3A20D3
:104E1000FDF7ECFD002205213B20FDF7F5FD3B20D1
:104E2000FDF7E4FD002205214420FDF7EDFD4420BF
:104E3000FDF7DCFD002205214520FDF7E5FD4520BD
:104E4000FDF7D4FD002205214620FDF7DDFDBDE87C
:104E500008404620FDF7CABD3038024000B587B093
:104E60001C2207496846FBF73BFB0021684604F01B
:104E700039FF0449086005F07FFA07B000BD000063
:104E8000F4BB000800000020F0B587B0142168468C
:104E9000FBF782FB3548016841F0020101600168BF
:104EA00001F002010591016841F0400101600168D3
:104EB00001F040010591016841F0010101600168C4
:104EC00001F001010591016841F0080101600168EC
:104ED00001F008010591016841F0040101600168D9
:104EE00001F004010591016841F080010160016851
:104EF00001F080010591016841F020010160016825
:104F000001F020010591016841F010010160006885
:104F1000174E00F010000590012210213046FDF7D9
:104F2000CFFC144F012211463846FDF7C9FC01247D
:104F30001020CDE90004022569463046CDE902453E
:104F4000FDF7C6FB302000904FF40410CDE90104BA
:104F500069460948FDF7BCFB009469463846019450
:104F6000CDE90245FDF7B4FB07B0F0BD3038024093
:104F7000000002400004024000080240104810B542
:104F80000E4901604FF4827141600021022281606C
:104F9000C0E9031201224261520282613822C0E953
:104FA0000721416281620A21C162FEF743FD0028A8
:104FB00003D0BDE81040FCF7A6BD10BD0030014095
:104FC0000805002010B588B01C216846FBF7E4FAFC
:104FD000144813490024C0E9001441F28731C0E9A4
:104FE000024104618461FEF76FFF08B1FCF78BFD9D
:104FF0000C48FFF738FA08B1FCF785FD6020CDE9D1
:10500000000402940022694606480494FFF7C5F99B
:1050100008B1FCF778FD0348FFF74EF908B010BD62
:1050200000440140F806002010B596B000240F940B
:1050300010941194129413941C2168461494FBF755
:10504000ABFA202107A8FBF7A7FA31482F490160E6
:10505000A721C0E9011444F61F61C0E903148021AF
:10506000C0E90541FEF730FF08B1FCF74CFD4FF4F5
:1050700080500F900FA92648FFF716F808B1FCF7EB
:1050800042FD2348FFF7EFF908B1FCF73CFD13940C
:1050900013A91F481494FEF7CFFE08B1FCF733FDA7
:1050A000602000906420CDE90104039404940594E9
:1050B0000022694616480694FFF76FF908B1FCF71D
:1050C00022FD042269461248FFF767F908B1FCF790
:1050D0001AFD082269460E48FFF75FF908B1FCF790
:1050E00012FD0794089409944FF400500A94CDE9F6
:1050F0000B4007A906480E94FEF774FE08B1FCF7B2
:1051000002FD0348FFF7D8F816B010BD00000140BB
:105110002006002010B58EB000240794089409944E
:105120000A940B941C2168460C94FBF735FA254829
:105130002349C0E900148913C0E902410461846174
:10514000FEF7C2FE08B1FCF7DEFC4FF4805007907A
:1051500007A91C48FEF7A8FF08B1FCF7D4FC1948C2
:10516000FFF781F908B1FCF7CEFC0B940BA91548A9
:105170000C94FEF761FE08B1FCF7C5FC6020CDE998
:1051800000040294002269460E480494FFF705F9D2
:1051900008B1FCF7B8FC042269460A48FFF7FDF89D
:1051A00008B1FCF7B0FC082269460648FFF7F5F89D
:1051B00008B1FCF7A8FC0348FFF77EF80EB010BD5D
:1051C000000C0040680600201CB500240F48009425
:1051D0000D490194016042F2CF01C0E9011413218D
:1051E000C16080218161FEF76FFE08B1FCF78BFC86
:1051F0000094694605480194FEF71EFE002801D080
:10520000FCF781FC1CBD000000100040B00600202F
:105210000C4810B50A4901604FF4E13141600021AA
:1052200081600C22C160C0E904128161C161FFF795
:10523000FDFA002803D0BDE81040FCF764BC10BDA7
:1052400000100140400700200C4810B50A490160D9
:105250000B494160002181600C22C160C0E9041249
:105260008161C161FFF7E2FA002803D0BDE8104078
:10527000FCF749BC10BD0000004800408807002032
:10528000A08601000C4810B50A4901604FF4E131D5
:105290004160002181600C22C160C0E9041281617B
:1052A000C161FFF7C3FA002803D0BDE81040FCF746
:1052B0002ABC10BD00140140D007002010B5002208
:1052C0000F49104802F082F808B1FCF71CFC0E49A7
:1052D0000C4802F097FA08B1FCF715FC0B49094895
:1052E00001F03CFE08B1FCF70EFC064802F00EFB94
:1052F000002803D0BDE81040FCF705BC10BD00003D
:1053000008000020400A00203C0100205800002036
:10531000FEE7FEE770B5114D0A46044629680029EC
:105320001BD0092A19D301F5907105F04DF82968B1
:10533000201D01F5927105F047F8207A00F0010177
:10534000286880F83211217AC1F3400180F83011C9
:10535000217AC1F3800180F8331170BD280200204A
:10536000054A1268002A05D0042903D302F5967174
:1053700005F02AB870470000280200203EB50D460F
:10538000040011D04FF49C71FBF706F90748002187
:10539000074B04608020CDE9001002904FF4E13209
:1053A00029462046FBF7B4FC3EBD00002802002041
:1053B000B55300082DE9F04700240D4607464E1E60
:1053C00038E0385DA52834D1A01DB04231DA381953
:1053D0008046052103F08EF900282DD0B8F8019001
:1053E00004EB09000830B04206DA09F10901404631
:1053F00003F062F900281FD0B8F80500A0F580601E
:10540000013804D0012809D0022812D10CE00B4841
:105410000168D8F80700C1F834010AE0494608F1EC
:105420000700FFF777FF04E0494608F10700FFF7A0
:1054300097FF641CAC42C4DBBDE8F0872802002063
:1054400030B5816891ED011A0021042216E000BFF9
:10545000836802EB81041D1903EB8103D5ED001A6B
:1054600071EEC11AC3ED001AC3681C4403EB81033B
:10547000D4ED001A491CC3ED001A89B203885B1EE3
:105480008B42E5DC02886FF00703816803EB82033F
:105490000B4493ED001A6FF0030303EB820231EE2D
:1054A000000A114481ED000A0288C16803EB820200
:1054B0001144C1ED000A018842688A4201D2521C9F
:1054C00042600022C26102624262826242688C1AB9
:1054D000A2B229E08368D0ED070A03EB820393EDC3
:1054E000000A40EE000AC0ED070A93ED000AD0ED75
:1054F000080A30EE200A80ED080AD3ED000AC368DE
:1055000090ED090A03EB8203521C93ED001A92B24C
:1055100000EE810A80ED090A93ED000AD0ED0A0A37
:1055200030EE200A80ED0A0A9142D3D800EE101A1C
:10553000D0ED090AD0ED071AB8EE400AA2B220EE6B
:10554000801A90ED080AD0ED0A0A00EE601A00EE0B
:10555000901AF8EE600A61EEA00A40EE400A81EE71
:10556000200ADFED170A80ED040AC0ED060A19E0F3
:105570008368D0ED050A03EB820393ED001AC3683C
:1055800040EE010A03EB8203521C93ED001A92B223
:1055900070EEC10A90ED061AF0EEE00A70EE810A94
:1055A000C0ED060A9142E3D8B0EE601A00EE901A00
:1055B000F8EE600AC1EE201AC0ED061A30BD0000F8
:1055C000000000000148FDF79DBB00003C210020C9
:1055D00010B504462DED088BB0EE619AF0EE408ACE
:1055E000B0EE418AF0EE609AB0EE490A04F088FE0F
:1055F00003F0AAFAB0EE40AAB0EE490A04F080FE29
:1056000003F0D6F9B0EE401A18EE100A28EE819A8F
:1056100068EE8A8A09EECA9A49EE818A06F03EFA55
:1056200039EE280A41EC1B0B10EE100A06F036FA90
:105630009FED2BAB53EC1A2B05F06AFF53EC1B2BA1
:1056400005F0BEFE06F0BCF8208018EE100A06F049
:1056500025FA38EEC90A41EC1B0B10EE100A06F0D1
:105660001DFA53EC1A2B05F053FF53EC1B2B05F0DE
:10567000A7FE06F0A5F8608018EE100A06F00EFAF4
:10568000B1EE490A41EC1B0B30EE680A10EE100A2D
:1056900006F004FA53EC1A2B05F03AFF53EC1B2BDF
:1056A00005F08EFE06F08CF8A08018EE100A06F0C9
:1056B000F5F939EE680A41EC1B0B10EE100A06F002
:1056C000EDF953EC1A2B05F023FF53EC1B2B05F0DF
:1056D00077FE06F075F8E080BDEC088B10BD000089
:1056E000CD3B7F669EA0F63F2DE9F04103680D4655
:1056F00004461E6C03EB4511D1F8080B94F806E044
:105700004FF400474FF0200C04F29C42BEF1010F11
:1057100009D0DFF898E0764539D1020432D500BFD0
:10572000C1F8087B3FE0224B5FEA007E04D59E4231
:1057300039D90004F4D436E05FEA806E02D5C1F8AE
:1057400008CB30E010F0280F2DD19E4201D9000483
:10575000E6D405EBC50004EB8000D1F8101BD0F8AF
:105760007432C1F31201591AC0F8681200F51570AD
:10577000ADB903691BB1C2681144C1600FE00121DA
:1057800020680AE080060AD5C1F808CB07E035B9E1
:10579000D4F8640218B90021184602F039FCE9B2C5
:1057A0002046FDF797F90020BDE8F0810A31544FFB
:1057B0000A30544F2DE9F84F0E4601EBC60100EBBD
:1057C000810481460568D4E909101434884202D95D
:1057D0000120BDE8F88F081AA168814200D208466E
:1057E000C01C870805EB46181BE000BFA0EB010AB0
:1057F000A068504500D282460AF10300870899F854
:10580000060000901FFA8AF3F2B22846E16802F01F
:105810003DFFE16801EB0A00E060616901EB0A000D
:105820006061D8F8180980B2B84205D3D4E9040100
:10583000814201D20028D9D1D4E90401884208D894
:1058400006F00F0101208840D5F834188143C5F8CF
:1058500034180020BDE70000B0EE402A9FED9D0AFD
:1058600000287DD090ED081A80ED091AD0ED132A9A
:10587000C0ED142AD0ED121AC0ED131AC0ED060ABD
:1058800070EEC20A80ED072AC0ED120A017811B14C
:10589000012966D0ECE090ED152AB5EEC02AF1EEB4
:1058A00010FA0BDDF4EEC20AF1EE10FA06D2B1EEF8
:1058B000422AF4EEC20AF1EE10FA7CDC90ED102AD6
:1058C00070EEE11A80ED112A90ED0F2A80ED102A7A
:1058D000C0ED0F1A816DB1F17E5F10D090ED012AFD
:1058E00022EE202A80ED0C2A90ED0D2AD0ED022A1E
:1058F00002EEA02A80ED0D2A90ED032A37E0002168
:1059000090F85C203AE0036EF5EEC00A03EB011359
:10591000D3ED002AF1EE10FA02DDB0EE602A01E0CC
:10592000B1EE602AF4EEC22AF1EE10FA24DB042371
:10593000026E03EB0113134493ED002A082303EBDB
:10594000011322EE202A134480ED0C2AD3ED002A05
:1059500090ED0D2A0C2302EEA02A80ED0D2A01E025
:10596000A8E047E003EB0111114491ED002A62EE3B
:10597000211AC0ED0E1A03E0491CC9B28A42C2D8EE
:1059800090ED0D2AD0ED051AB4EEE12AF1EE10FAF1
:1059900006DCF1EE611AB4EEE12AF1EE10FA01D262
:1059A000C0ED0D1AD0ED0C1A90ED0D2AD0ED0E2A97
:1059B00071EE821A00E01AE062EE200A71EEA21A7D
:1059C000F5EEC00AC0ED081AF1EE10FA01D280ED32
:1059D0000D0A90ED040AF4EEC01AF1EE10FA06DC9E
:1059E000B1EE400AF4EEC01AF1EE10FA40D280EDAA
:1059F000080A3DE030EEE10A90ED012A20EE022A8D
:105A000080ED0C2A90ED020A20EE200A80ED0D0AAE
:105A100090ED103A32EE000A80ED113A90ED0F3A17
:105A200080ED103AB0EE003A41EEC30A70EEA20AE1
:105A3000C0ED0F0AD0ED031A61EEA00AC0ED0E0A08
:105A400070EE200AB0EE410A30EE800A80ED080ABE
:105A5000D0ED040AB4EEE00AF1EE10FA06DCF1EE45
:105A6000600AB4EEE00AF1EE10FA01D2C0ED080AC5
:105A700090ED080AB5EEC01A30EE410AF1EE10FAC8
:105A8000D0ED0A0A17DBF4EEC00AF1EE10FA02D2EA
:105A900031EE200A0AE0D0ED0B0AF1EE601AF4EEC6
:105AA000C01AF1EE10FA03DD31EE600A80ED080A4B
:105AB00090ED080A7047F1EE601AF4EEC01AF1EEAC
:105AC00010FAF1DCD0ED0B0AF4EEC00AF1EE10FA98
:105AD000DED3EDE7000000000FB400283CD09DF8B5
